{
  "address": "0x9DFe466458F7759766F6648e10055A4570bC547d",
  "abi": [
    {
      "inputs": [
        {
          "internalType": "string",
          "name": "_name",
          "type": "string"
        },
        {
          "internalType": "string",
          "name": "_symbol",
          "type": "string"
        },
        {
          "internalType": "string",
          "name": "_initBaseURI",
          "type": "string"
        }
      ],
      "stateMutability": "nonpayable",
      "type": "constructor"
    },
    {
      "anonymous": false,
      "inputs": [
        {
          "indexed": true,
          "internalType": "address",
          "name": "owner",
          "type": "address"
        },
        {
          "indexed": true,
          "internalType": "address",
          "name": "approved",
          "type": "address"
        },
        {
          "indexed": true,
          "internalType": "uint256",
          "name": "tokenId",
          "type": "uint256"
        }
      ],
      "name": "Approval",
      "type": "event"
    },
    {
      "anonymous": false,
      "inputs": [
        {
          "indexed": true,
          "internalType": "address",
          "name": "owner",
          "type": "address"
        },
        {
          "indexed": true,
          "internalType": "address",
          "name": "operator",
          "type": "address"
        },
        {
          "indexed": false,
          "internalType": "bool",
          "name": "approved",
          "type": "bool"
        }
      ],
      "name": "ApprovalForAll",
      "type": "event"
    },
    {
      "anonymous": false,
      "inputs": [
        {
          "indexed": true,
          "internalType": "address",
          "name": "previousOwner",
          "type": "address"
        },
        {
          "indexed": true,
          "internalType": "address",
          "name": "newOwner",
          "type": "address"
        }
      ],
      "name": "OwnershipTransferred",
      "type": "event"
    },
    {
      "anonymous": false,
      "inputs": [
        {
          "indexed": true,
          "internalType": "address",
          "name": "from",
          "type": "address"
        },
        {
          "indexed": true,
          "internalType": "address",
          "name": "to",
          "type": "address"
        },
        {
          "indexed": true,
          "internalType": "uint256",
          "name": "tokenId",
          "type": "uint256"
        }
      ],
      "name": "Transfer",
      "type": "event"
    },
    {
      "inputs": [],
      "name": "_initBaseURI",
      "outputs": [
        {
          "internalType": "string",
          "name": "",
          "type": "string"
        }
      ],
      "stateMutability": "view",
      "type": "function"
    },
    {
      "inputs": [],
      "name": "_name",
      "outputs": [
        {
          "internalType": "string",
          "name": "",
          "type": "string"
        }
      ],
      "stateMutability": "view",
      "type": "function"
    },
    {
      "inputs": [],
      "name": "_symbol",
      "outputs": [
        {
          "internalType": "string",
          "name": "",
          "type": "string"
        }
      ],
      "stateMutability": "view",
      "type": "function"
    },
    {
      "inputs": [
        {
          "internalType": "address[]",
          "name": "_users",
          "type": "address[]"
        }
      ],
      "name": "addWhitelistUsers",
      "outputs": [],
      "stateMutability": "nonpayable",
      "type": "function"
    },
    {
      "inputs": [
        {
          "internalType": "address",
          "name": "",
          "type": "address"
        }
      ],
      "name": "addressMintedBalance",
      "outputs": [
        {
          "internalType": "uint256",
          "name": "",
          "type": "uint256"
        }
      ],
      "stateMutability": "view",
      "type": "function"
    },
    {
      "inputs": [
        {
          "internalType": "address",
          "name": "to",
          "type": "address"
        },
        {
          "internalType": "uint256",
          "name": "tokenId",
          "type": "uint256"
        }
      ],
      "name": "approve",
      "outputs": [],
      "stateMutability": "nonpayable",
      "type": "function"
    },
    {
      "inputs": [
        {
          "internalType": "address",
          "name": "owner",
          "type": "address"
        }
      ],
      "name": "balanceOf",
      "outputs": [
        {
          "internalType": "uint256",
          "name": "",
          "type": "uint256"
        }
      ],
      "stateMutability": "view",
      "type": "function"
    },
    {
      "inputs": [],
      "name": "baseExtension",
      "outputs": [
        {
          "internalType": "string",
          "name": "",
          "type": "string"
        }
      ],
      "stateMutability": "view",
      "type": "function"
    },
    {
      "inputs": [],
      "name": "baseURI",
      "outputs": [
        {
          "internalType": "string",
          "name": "",
          "type": "string"
        }
      ],
      "stateMutability": "view",
      "type": "function"
    },
    {
      "inputs": [],
      "name": "cost",
      "outputs": [
        {
          "internalType": "uint256",
          "name": "",
          "type": "uint256"
        }
      ],
      "stateMutability": "view",
      "type": "function"
    },
    {
      "inputs": [
        {
          "internalType": "uint256",
          "name": "tokenId",
          "type": "uint256"
        }
      ],
      "name": "getApproved",
      "outputs": [
        {
          "internalType": "address",
          "name": "",
          "type": "address"
        }
      ],
      "stateMutability": "view",
      "type": "function"
    },
    {
      "inputs": [],
      "name": "getIsRevealed",
      "outputs": [
        {
          "internalType": "uint256",
          "name": "",
          "type": "uint256"
        }
      ],
      "stateMutability": "view",
      "type": "function"
    },
    {
      "inputs": [],
      "name": "getMintState",
      "outputs": [
        {
          "internalType": "uint256",
          "name": "",
          "type": "uint256"
        }
      ],
      "stateMutability": "view",
      "type": "function"
    },
    {
      "inputs": [],
      "name": "getRemainCollections",
      "outputs": [
        {
          "internalType": "uint256",
          "name": "",
          "type": "uint256"
        }
      ],
      "stateMutability": "view",
      "type": "function"
    },
    {
      "inputs": [
        {
          "internalType": "address",
          "name": "user",
          "type": "address"
        }
      ],
      "name": "getRemainNFTforUser",
      "outputs": [
        {
          "internalType": "uint256",
          "name": "",
          "type": "uint256"
        }
      ],
      "stateMutability": "view",
      "type": "function"
    },
    {
      "inputs": [
        {
          "internalType": "address",
          "name": "owner",
          "type": "address"
        },
        {
          "internalType": "address",
          "name": "operator",
          "type": "address"
        }
      ],
      "name": "isApprovedForAll",
      "outputs": [
        {
          "internalType": "bool",
          "name": "",
          "type": "bool"
        }
      ],
      "stateMutability": "view",
      "type": "function"
    },
    {
      "inputs": [],
      "name": "isPaused",
      "outputs": [
        {
          "internalType": "uint256",
          "name": "",
          "type": "uint256"
        }
      ],
      "stateMutability": "view",
      "type": "function"
    },
    {
      "inputs": [
        {
          "internalType": "address",
          "name": "_user",
          "type": "address"
        }
      ],
      "name": "isWhitelisted",
      "outputs": [
        {
          "internalType": "bool",
          "name": "",
          "type": "bool"
        }
      ],
      "stateMutability": "view",
      "type": "function"
    },
    {
      "inputs": [],
      "name": "maxMintAmount",
      "outputs": [
        {
          "internalType": "uint256",
          "name": "",
          "type": "uint256"
        }
      ],
      "stateMutability": "view",
      "type": "function"
    },
    {
      "inputs": [],
      "name": "maxSupply",
      "outputs": [
        {
          "internalType": "uint256",
          "name": "",
          "type": "uint256"
        }
      ],
      "stateMutability": "view",
      "type": "function"
    },
    {
      "inputs": [],
      "name": "metaDataFolder",
      "outputs": [
        {
          "internalType": "string",
          "name": "",
          "type": "string"
        }
      ],
      "stateMutability": "view",
      "type": "function"
    },
    {
      "inputs": [
        {
          "internalType": "address",
          "name": "_to",
          "type": "address"
        },
        {
          "internalType": "uint256",
          "name": "_mintAmount",
          "type": "uint256"
        }
      ],
      "name": "mint",
      "outputs": [],
      "stateMutability": "payable",
      "type": "function"
    },
    {
      "inputs": [],
      "name": "mintState",
      "outputs": [
        {
          "internalType": "uint256",
          "name": "",
          "type": "uint256"
        }
      ],
      "stateMutability": "view",
      "type": "function"
    },
    {
      "inputs": [],
      "name": "name",
      "outputs": [
        {
          "internalType": "string",
          "name": "",
          "type": "string"
        }
      ],
      "stateMutability": "view",
      "type": "function"
    },
    {
      "inputs": [],
      "name": "nftPerAddressLimit",
      "outputs": [
        {
          "internalType": "uint256",
          "name": "",
          "type": "uint256"
        }
      ],
      "stateMutability": "view",
      "type": "function"
    },
    {
      "inputs": [],
      "name": "notRevealedUri",
      "outputs": [
        {
          "internalType": "string",
          "name": "",
          "type": "string"
        }
      ],
      "stateMutability": "view",
      "type": "function"
    },
    {
      "inputs": [],
      "name": "onlyWhitelisted",
      "outputs": [
        {
          "internalType": "uint256",
          "name": "",
          "type": "uint256"
        }
      ],
      "stateMutability": "view",
      "type": "function"
    },
    {
      "inputs": [],
      "name": "owner",
      "outputs": [
        {
          "internalType": "address",
          "name": "",
          "type": "address"
        }
      ],
      "stateMutability": "view",
      "type": "function"
    },
    {
      "inputs": [
        {
          "internalType": "uint256",
          "name": "tokenId",
          "type": "uint256"
        }
      ],
      "name": "ownerOf",
      "outputs": [
        {
          "internalType": "address",
          "name": "",
          "type": "address"
        }
      ],
      "stateMutability": "view",
      "type": "function"
    },
    {
      "inputs": [
        {
          "internalType": "bool",
          "name": "_state",
          "type": "bool"
        }
      ],
      "name": "pause",
      "outputs": [],
      "stateMutability": "nonpayable",
      "type": "function"
    },
    {
      "inputs": [],
      "name": "paused",
      "outputs": [
        {
          "internalType": "bool",
          "name": "",
          "type": "bool"
        }
      ],
      "stateMutability": "view",
      "type": "function"
    },
    {
      "inputs": [],
      "name": "remainTokenAmount",
      "outputs": [
        {
          "internalType": "uint256",
          "name": "",
          "type": "uint256"
        }
      ],
      "stateMutability": "view",
      "type": "function"
    },
    {
      "inputs": [],
      "name": "renounceOwnership",
      "outputs": [],
      "stateMutability": "nonpayable",
      "type": "function"
    },
    {
      "inputs": [
        {
          "internalType": "uint256",
          "name": "_revealed",
          "type": "uint256"
        }
      ],
      "name": "reveal",
      "outputs": [],
      "stateMutability": "nonpayable",
      "type": "function"
    },
    {
      "inputs": [],
      "name": "revealed",
      "outputs": [
        {
          "internalType": "uint256",
          "name": "",
          "type": "uint256"
        }
      ],
      "stateMutability": "view",
      "type": "function"
    },
    {
      "inputs": [
        {
          "internalType": "address",
          "name": "from",
          "type": "address"
        },
        {
          "internalType": "address",
          "name": "to",
          "type": "address"
        },
        {
          "internalType": "uint256",
          "name": "tokenId",
          "type": "uint256"
        }
      ],
      "name": "safeTransferFrom",
      "outputs": [],
      "stateMutability": "nonpayable",
      "type": "function"
    },
    {
      "inputs": [
        {
          "internalType": "address",
          "name": "from",
          "type": "address"
        },
        {
          "internalType": "address",
          "name": "to",
          "type": "address"
        },
        {
          "internalType": "uint256",
          "name": "tokenId",
          "type": "uint256"
        },
        {
          "internalType": "bytes",
          "name": "_data",
          "type": "bytes"
        }
      ],
      "name": "safeTransferFrom",
      "outputs": [],
      "stateMutability": "nonpayable",
      "type": "function"
    },
    {
      "inputs": [
        {
          "internalType": "address",
          "name": "operator",
          "type": "address"
        },
        {
          "internalType": "bool",
          "name": "approved",
          "type": "bool"
        }
      ],
      "name": "setApprovalForAll",
      "outputs": [],
      "stateMutability": "nonpayable",
      "type": "function"
    },
    {
      "inputs": [
        {
          "internalType": "string",
          "name": "_newBaseExtension",
          "type": "string"
        }
      ],
      "name": "setBaseExtension",
      "outputs": [],
      "stateMutability": "nonpayable",
      "type": "function"
    },
    {
      "inputs": [
        {
          "internalType": "string",
          "name": "_newBaseURI",
          "type": "string"
        }
      ],
      "name": "setBaseURI",
      "outputs": [],
      "stateMutability": "nonpayable",
      "type": "function"
    },
    {
      "inputs": [
        {
          "internalType": "uint256",
          "name": "_newCost",
          "type": "uint256"
        }
      ],
      "name": "setCost",
      "outputs": [],
      "stateMutability": "nonpayable",
      "type": "function"
    },
    {
      "inputs": [
        {
          "internalType": "uint256",
          "name": "_mintState",
          "type": "uint256"
        }
      ],
      "name": "setMintState",
      "outputs": [],
      "stateMutability": "nonpayable",
      "type": "function"
    },
    {
      "inputs": [
        {
          "internalType": "uint256",
          "name": "_limit",
          "type": "uint256"
        }
      ],
      "name": "setNftPerAddressLimit",
      "outputs": [],
      "stateMutability": "nonpayable",
      "type": "function"
    },
    {
      "inputs": [
        {
          "internalType": "uint256",
          "name": "_state",
          "type": "uint256"
        }
      ],
      "name": "setOnlyWhitelisted",
      "outputs": [],
      "stateMutability": "nonpayable",
      "type": "function"
    },
    {
      "inputs": [
        {
          "internalType": "string",
          "name": "_RevealedURI",
          "type": "string"
        }
      ],
      "name": "setRevealedURI",
      "outputs": [],
      "stateMutability": "nonpayable",
      "type": "function"
    },
    {
      "inputs": [
        {
          "internalType": "address[]",
          "name": "_users",
          "type": "address[]"
        }
      ],
      "name": "setWhitelistUsers",
      "outputs": [],
      "stateMutability": "nonpayable",
      "type": "function"
    },
    {
      "inputs": [
        {
          "internalType": "uint256",
          "name": "_newmaxMintAmount",
          "type": "uint256"
        }
      ],
      "name": "setmaxMintAmount",
      "outputs": [],
      "stateMutability": "nonpayable",
      "type": "function"
    },
    {
      "inputs": [
        {
          "internalType": "bytes4",
          "name": "interfaceId",
          "type": "bytes4"
        }
      ],
      "name": "supportsInterface",
      "outputs": [
        {
          "internalType": "bool",
          "name": "",
          "type": "bool"
        }
      ],
      "stateMutability": "view",
      "type": "function"
    },
    {
      "inputs": [],
      "name": "symbol",
      "outputs": [
        {
          "internalType": "string",
          "name": "",
          "type": "string"
        }
      ],
      "stateMutability": "view",
      "type": "function"
    },
    {
      "inputs": [
        {
          "internalType": "uint256",
          "name": "index",
          "type": "uint256"
        }
      ],
      "name": "tokenByIndex",
      "outputs": [
        {
          "internalType": "uint256",
          "name": "",
          "type": "uint256"
        }
      ],
      "stateMutability": "view",
      "type": "function"
    },
    {
      "inputs": [
        {
          "internalType": "address",
          "name": "owner",
          "type": "address"
        },
        {
          "internalType": "uint256",
          "name": "index",
          "type": "uint256"
        }
      ],
      "name": "tokenOfOwnerByIndex",
      "outputs": [
        {
          "internalType": "uint256",
          "name": "",
          "type": "uint256"
        }
      ],
      "stateMutability": "view",
      "type": "function"
    },
    {
      "inputs": [
        {
          "internalType": "address",
          "name": "_owner",
          "type": "address"
        }
      ],
      "name": "tokenOfwallet",
      "outputs": [
        {
          "internalType": "uint256[]",
          "name": "",
          "type": "uint256[]"
        }
      ],
      "stateMutability": "view",
      "type": "function"
    },
    {
      "inputs": [
        {
          "internalType": "uint256",
          "name": "tokenId",
          "type": "uint256"
        }
      ],
      "name": "tokenURI",
      "outputs": [
        {
          "internalType": "string",
          "name": "",
          "type": "string"
        }
      ],
      "stateMutability": "view",
      "type": "function"
    },
    {
      "inputs": [],
      "name": "totalSupply",
      "outputs": [
        {
          "internalType": "uint256",
          "name": "",
          "type": "uint256"
        }
      ],
      "stateMutability": "view",
      "type": "function"
    },
    {
      "inputs": [
        {
          "internalType": "address",
          "name": "from",
          "type": "address"
        },
        {
          "internalType": "address",
          "name": "to",
          "type": "address"
        },
        {
          "internalType": "uint256",
          "name": "tokenId",
          "type": "uint256"
        }
      ],
      "name": "transferFrom",
      "outputs": [],
      "stateMutability": "nonpayable",
      "type": "function"
    },
    {
      "inputs": [
        {
          "internalType": "address",
          "name": "newOwner",
          "type": "address"
        }
      ],
      "name": "transferOwnership",
      "outputs": [],
      "stateMutability": "nonpayable",
      "type": "function"
    },
    {
      "inputs": [
        {
          "internalType": "uint256",
          "name": "",
          "type": "uint256"
        }
      ],
      "name": "whitelistedAddresses",
      "outputs": [
        {
          "internalType": "address",
          "name": "",
          "type": "address"
        }
      ],
      "stateMutability": "view",
      "type": "function"
    },
    {
      "inputs": [],
      "name": "withdraw",
      "outputs": [],
      "stateMutability": "payable",
      "type": "function"
    }
  ],
  "transactionHash": "0x909c6b3c95d9f6a87de8d224b4bfbdd85a40a22dbaf9cd61ff36c9a39ade6c38",
  "args": [
    "Uncanny",
    "UCC",
    "https://uncanny.mypinata.cloud/ipfs/QmPLUxmkduQpxuNH4MPp3g71anDN6MhGxtZ4prgmogKqZW/"
  ],
  "numDeployments": 2,
  "solcInputHash": "f230519c9f3ba0e2f4197ea76e64ccf8",
  "bytecode": "0x60c06040526005608081905264173539b7b760d91b60a09081526200002891600d919062000234565b506040805160208101918290526000908190526200004991600e9162000234565b506040518060800160405280605981526020016200343f6059913980516200007a91600f9160209091019062000234565b5066ae153d89fe800060135561138860148190556015556005601681905560175560006018819055601955601a805460ff191690556001601b55348015620000c157600080fd5b506040516200349838038062003498833981016040819052620000e4916200038d565b825183908390620000fd90600090602085019062000234565b5080516200011390600190602084019062000234565b505050620001306200012a6200016660201b60201c565b6200016a565b6200013b81620001bc565b5050600a54601e80546001600160a01b0319166001600160a01b03909216919091179055506200046d565b3390565b600a80546001600160a01b038381166001600160a01b0319831681179093556040519116919082907f8be0079c531659141344cd1fd0a4f28419497f9722a3daafe3b4186f6b6457e090600090a35050565b600a546001600160a01b031633146200021b5760405162461bcd60e51b815260206004820181905260248201527f4f776e61626c653a2063616c6c6572206973206e6f7420746865206f776e6572604482015260640160405180910390fd5b80516200023090600c90602084019062000234565b5050565b82805462000242906200041a565b90600052602060002090601f016020900481019282620002665760008555620002b1565b82601f106200028157805160ff1916838001178555620002b1565b82800160010185558215620002b1579182015b82811115620002b157825182559160200191906001019062000294565b50620002bf929150620002c3565b5090565b5b80821115620002bf5760008155600101620002c4565b600082601f830112620002eb578081fd5b81516001600160401b038082111562000308576200030862000457565b604051601f8301601f19908116603f0116810190828211818310171562000333576200033362000457565b816040528381526020925086838588010111156200034f578485fd5b8491505b8382101562000372578582018301518183018401529082019062000353565b838211156200038357848385830101525b9695505050505050565b600080600060608486031215620003a2578283fd5b83516001600160401b0380821115620003b9578485fd5b620003c787838801620002da565b94506020860151915080821115620003dd578384fd5b620003eb87838801620002da565b9350604086015191508082111562000401578283fd5b506200041086828701620002da565b9150509250925092565b600181811c908216806200042f57607f821691505b602082108114156200045157634e487b7160e01b600052602260045260246000fd5b50919050565b634e487b7160e01b600052604160045260246000fd5b612fc2806200047d6000396000f3fe6080604052600436106103815760003560e01c80636556be1c116101d1578063b88d4fde11610102578063c7873b83116100a0578063d5abeb011161006f578063d5abeb011461098e578063da3ef23f146109a4578063e985e9c5146109c4578063f2fde38b14610a0d57600080fd5b8063c7873b8314610923578063c87b56dd14610939578063d0eb26b014610959578063d28d88521461097957600080fd5b8063c051e38a116100dc578063c051e38a146108b8578063c2ca0ac5146108ce578063c5f9816b146108ee578063c66828621461090e57600080fd5b8063b88d4fde14610862578063ba4e5c4914610882578063ba7d2c76146108a257600080fd5b80638da5cb5b1161016f5780639c70b512116101495780639c70b51214610802578063a22cb46514610818578063b09f126614610838578063b187bd261461084d57600080fd5b80638da5cb5b146107ba5780639502743d146107d857806395d89b41146107ed57600080fd5b806370a08231116101ab57806370a0823114610750578063715018a614610770578063774a8835146107855780637f00c7a61461079a57600080fd5b80636556be1c146106ee578063686b28121461071b5780636c0360eb1461073b57600080fd5b806323b872dd116102b657806340c10f19116102545780635183022711610223578063518302271461067e57806355f804b3146106945780635c975abb146106b45780636352211e146106ce57600080fd5b806340c10f191461060b57806342842e0e1461061e57806344a0d68a1461063e5780634f6ccce71461065e57600080fd5b8063326d438811610290578063326d4388146105a357806337cada6f146105c35780633af32abf146105e35780633ccfd60b1461060357600080fd5b806323b872dd146105435780632beab4b7146105635780632f745c591461058357600080fd5b8063095ea7b31161032357806318160ddd116102fd57806318160ddd146104d657806318cae269146104eb5780631de18b3614610518578063239c70ae1461052d57600080fd5b8063095ea7b3146104805780630bb862d1146104a057806313faede6146104c057600080fd5b806306fdde031161035f57806306fdde03146103fc57806307c0af471461041e578063081812fc14610433578063081c8c441461046b57600080fd5b806301ffc9a71461038657806302329a29146103bb57806302fcb7af146103dd575b600080fd5b34801561039257600080fd5b506103a66103a1366004612b35565b610a2d565b60405190151581526020015b60405180910390f35b3480156103c757600080fd5b506103db6103d6366004612b1b565b610a58565b005b3480156103e957600080fd5b506015545b6040519081526020016103b2565b34801561040857600080fd5b50610411610a9e565b6040516103b29190612d3a565b34801561042a57600080fd5b506019546103ee565b34801561043f57600080fd5b5061045361044e366004612bb3565b610b30565b6040516001600160a01b0390911681526020016103b2565b34801561047757600080fd5b50610411610bc5565b34801561048c57600080fd5b506103db61049b366004612a82565b610c53565b3480156104ac57600080fd5b506103db6104bb366004612bb3565b610d69565b3480156104cc57600080fd5b506103ee60135481565b3480156104e257600080fd5b506008546103ee565b3480156104f757600080fd5b506103ee610506366004612952565b601d6020526000908152604090205481565b34801561052457600080fd5b50610411610e82565b34801561053957600080fd5b506103ee60165481565b34801561054f57600080fd5b506103db61055e3660046129a5565b610e8f565b34801561056f57600080fd5b506103db61057e366004612aab565b610ec0565b34801561058f57600080fd5b506103ee61059e366004612a82565b610f02565b3480156105af57600080fd5b506103db6105be366004612b6d565b610f98565b3480156105cf57600080fd5b506103ee6105de366004612952565b610fd5565b3480156105ef57600080fd5b506103a66105fe366004612952565b611038565b6103db6110b0565b6103db610619366004612a82565b61113a565b34801561062a57600080fd5b506103db6106393660046129a5565b61145b565b34801561064a57600080fd5b506103db610659366004612bb3565b611476565b34801561066a57600080fd5b506103ee610679366004612bb3565b6114a5565b34801561068a57600080fd5b506103ee60195481565b3480156106a057600080fd5b506103db6106af366004612b6d565b611546565b3480156106c057600080fd5b50601a546103a69060ff1681565b3480156106da57600080fd5b506104536106e9366004612bb3565b611587565b3480156106fa57600080fd5b5061070e610709366004612952565b6115fe565b6040516103b29190612cf6565b34801561072757600080fd5b506103db610736366004612aab565b6116bc565b34801561074757600080fd5b5061041161176c565b34801561075c57600080fd5b506103ee61076b366004612952565b611779565b34801561077c57600080fd5b506103db611800565b34801561079157600080fd5b50601b546103ee565b3480156107a657600080fd5b506103db6107b5366004612bb3565b611836565b3480156107c657600080fd5b50600a546001600160a01b0316610453565b3480156107e457600080fd5b50610411611865565b3480156107f957600080fd5b50610411611872565b34801561080e57600080fd5b506103ee60185481565b34801561082457600080fd5b506103db610833366004612a59565b611881565b34801561084457600080fd5b5061041161188c565b34801561085957600080fd5b506103ee611899565b34801561086e57600080fd5b506103db61087d3660046129e0565b6118b8565b34801561088e57600080fd5b5061045361089d366004612bb3565b6118ea565b3480156108ae57600080fd5b506103ee60175481565b3480156108c457600080fd5b506103ee601b5481565b3480156108da57600080fd5b506103db6108e9366004612bb3565b611914565b3480156108fa57600080fd5b506103db610909366004612bb3565b611943565b34801561091a57600080fd5b50610411611972565b34801561092f57600080fd5b506103ee60155481565b34801561094557600080fd5b50610411610954366004612bb3565b61197f565b34801561096557600080fd5b506103db610974366004612bb3565b611ba2565b34801561098557600080fd5b50610411611bd1565b34801561099a57600080fd5b506103ee60145481565b3480156109b057600080fd5b506103db6109bf366004612b6d565b611bde565b3480156109d057600080fd5b506103a66109df366004612973565b6001600160a01b03918216600090815260056020908152604080832093909416825291909152205460ff1690565b348015610a1957600080fd5b506103db610a28366004612952565b611c1b565b60006001600160e01b0319821663780e9d6360e01b1480610a525750610a5282611cb3565b92915050565b600a546001600160a01b03163314610a8b5760405162461bcd60e51b8152600401610a8290612d9f565b60405180910390fd5b601a805460ff1916911515919091179055565b606060008054610aad90612eca565b80601f0160208091040260200160405190810160405280929190818152602001828054610ad990612eca565b8015610b265780601f10610afb57610100808354040283529160200191610b26565b820191906000526020600020905b815481529060010190602001808311610b0957829003601f168201915b5050505050905090565b6000818152600260205260408120546001600160a01b0316610ba95760405162461bcd60e51b815260206004820152602c60248201527f4552433732313a20617070726f76656420717565727920666f72206e6f6e657860448201526b34b9ba32b73a103a37b5b2b760a11b6064820152608401610a82565b506000908152600460205260409020546001600160a01b031690565b600f8054610bd290612eca565b80601f0160208091040260200160405190810160405280929190818152602001828054610bfe90612eca565b8015610c4b5780601f10610c2057610100808354040283529160200191610c4b565b820191906000526020600020905b815481529060010190602001808311610c2e57829003601f168201915b505050505081565b6000610c5e82611587565b9050806001600160a01b0316836001600160a01b03161415610ccc5760405162461bcd60e51b815260206004820152602160248201527f4552433732313a20617070726f76616c20746f2063757272656e74206f776e656044820152603960f91b6064820152608401610a82565b336001600160a01b0382161480610ce85750610ce881336109df565b610d5a5760405162461bcd60e51b815260206004820152603860248201527f4552433732313a20617070726f76652063616c6c6572206973206e6f74206f7760448201527f6e6572206e6f7220617070726f76656420666f7220616c6c00000000000000006064820152608401610a82565b610d648383611d03565b505050565b600a546001600160a01b03163314610d935760405162461bcd60e51b8152600401610a8290612d9f565b6001811015610dde5760405162461bcd60e51b8152602060048201526017602482015276024b7383aba102bb937b7339036b4b73a1039ba30ba329604d1b6044820152606401610a82565b6003811115610e295760405162461bcd60e51b8152602060048201526017602482015276024b7383aba102bb937b7339036b4b73a1039ba30ba329604d1b6044820152606401610a82565b601b8190556001811415610e4e57610e416005611ba2565b610e4b6005611836565b50565b601b5460021415610e6d57610e63601e611ba2565b610e4b601e611836565b601b5460031415610e4b57610e63601e611ba2565b60128054610bd290612eca565b610e993382611d71565b610eb55760405162461bcd60e51b8152600401610a8290612dd4565b610d64838383611e68565b600a546001600160a01b03163314610eea5760405162461bcd60e51b8152600401610a8290612d9f565b610ef6601c60006127a6565b610d64601c83836127c4565b6000610f0d83611779565b8210610f6f5760405162461bcd60e51b815260206004820152602b60248201527f455243373231456e756d657261626c653a206f776e657220696e646578206f7560448201526a74206f6620626f756e647360a81b6064820152608401610a82565b506001600160a01b03919091166000908152600660209081526040808320938352929052205490565b600a546001600160a01b03163314610fc25760405162461bcd60e51b8152600401610a8290612d9f565b610fcc6001611914565b610e4b81611546565b600080610fea600a546001600160a01b031690565b6001600160a01b0316836001600160a01b03161461102f576001600160a01b0383166000908152601d60205260409020546017546110289190612e70565b9050610a52565b5060c892915050565b6000805b601c548110156110a757826001600160a01b0316601c828154811061107157634e487b7160e01b600052603260045260246000fd5b6000918252602090912001546001600160a01b031614156110955750600192915050565b8061109f81612f05565b91505061103c565b50600092915050565b600a546001600160a01b031633146110da5760405162461bcd60e51b8152600401610a8290612d9f565b601e546040516000916001600160a01b03169047908381818185875af1925050503d8060008114611127576040519150601f19603f3d011682016040523d82523d6000602084013e61112c565b606091505b5050905080610e4b57600080fd5b600061114560085490565b601a5490915060ff161561118c5760405162461bcd60e51b815260206004820152600e60248201526d135a5b9d081a5cc81c185d5cd95960921b6044820152606401610a82565b336111d95760405162461bcd60e51b815260206004820152601b60248201527f526563697069656e742073686f756c642062652070726573656e7400000000006044820152606401610a82565b600082116112295760405162461bcd60e51b815260206004820152601b60248201527f4e65656420746f206d696e74206174206c656173742031204e465400000000006044820152606401610a82565b6000601554116112745760405162461bcd60e51b815260206004820152601660248201527513585e08139195081b1a5b5a5d08195e18d95959195960521b6044820152606401610a82565b600a546001600160a01b031633146113f057336000908152601d60205260409020546017546112a38483612e25565b11156112f15760405162461bcd60e51b815260206004820152601c60248201527f4d6178204e4654207065722061646472657373206578636565646564000000006044820152606401610a82565b3461133e5760405162461bcd60e51b815260206004820181905260248201527f526f79616c74792076616c75652073686f756c6420626520706f7369746976656044820152606401610a82565b8260135461134c9190612e51565b3410156113905760405162461bcd60e51b8152602060048201526012602482015271496e73756666696369656e742066756e647360701b6044820152606401610a82565b6016548311156113ee5760405162461bcd60e51b8152602060048201526024808201527f4d6178206d696e7420616d6f756e74207065722073657373696f6e20657863656044820152631959195960e21b6064820152608401610a82565b505b60015b8281116114555761140d846114088385612e25565b61200f565b336000908152601d6020526040812080549161142883612f05565b90915550506015805490600061143d83612eb3565b9190505550808061144d90612f05565b9150506113f3565b50505050565b610d64838383604051806020016040528060008152506118b8565b600a546001600160a01b031633146114a05760405162461bcd60e51b8152600401610a8290612d9f565b601355565b60006114b060085490565b82106115135760405162461bcd60e51b815260206004820152602c60248201527f455243373231456e756d657261626c653a20676c6f62616c20696e646578206f60448201526b7574206f6620626f756e647360a01b6064820152608401610a82565b6008828154811061153457634e487b7160e01b600052603260045260246000fd5b90600052602060002001549050919050565b600a546001600160a01b031633146115705760405162461bcd60e51b8152600401610a8290612d9f565b805161158390600c906020840190612827565b5050565b6000818152600260205260408120546001600160a01b031680610a525760405162461bcd60e51b815260206004820152602960248201527f4552433732313a206f776e657220717565727920666f72206e6f6e657869737460448201526832b73a103a37b5b2b760b91b6064820152608401610a82565b6060600061160b83611779565b905060008167ffffffffffffffff81111561163657634e487b7160e01b600052604160045260246000fd5b60405190808252806020026020018201604052801561165f578160200160208202803683370190505b50905060005b828110156116b4576116778582610f02565b82828151811061169757634e487b7160e01b600052603260045260246000fd5b6020908102919091010152806116ac81612f05565b915050611665565b509392505050565b600a546001600160a01b031633146116e65760405162461bcd60e51b8152600401610a8290612d9f565b60005b81811015610d6457601c83838381811061171357634e487b7160e01b600052603260045260246000fd5b90506020020160208101906117289190612952565b81546001810183556000928352602090922090910180546001600160a01b0319166001600160a01b039092169190911790558061176481612f05565b9150506116e9565b600c8054610bd290612eca565b60006001600160a01b0382166117e45760405162461bcd60e51b815260206004820152602a60248201527f4552433732313a2062616c616e636520717565727920666f7220746865207a65604482015269726f206164647265737360b01b6064820152608401610a82565b506001600160a01b031660009081526003602052604090205490565b600a546001600160a01b0316331461182a5760405162461bcd60e51b8152600401610a8290612d9f565b6118346000612029565b565b600a546001600160a01b031633146118605760405162461bcd60e51b8152600401610a8290612d9f565b601655565b600e8054610bd290612eca565b606060018054610aad90612eca565b61158333838361207b565b60118054610bd290612eca565b601a5460009060ff161515600114156118b25750600190565b50600090565b6118c23383611d71565b6118de5760405162461bcd60e51b8152600401610a8290612dd4565b6114558484848461214a565b601c81815481106118fa57600080fd5b6000918252602090912001546001600160a01b0316905081565b600a546001600160a01b0316331461193e5760405162461bcd60e51b8152600401610a8290612d9f565b601955565b600a546001600160a01b0316331461196d5760405162461bcd60e51b8152600401610a8290612d9f565b601855565b600d8054610bd290612eca565b6000818152600260205260409020546060906001600160a01b03166119fe5760405162461bcd60e51b815260206004820152602f60248201527f4552433732314d657461646174613a2055524920717565727920666f72206e6f60448201526e3732bc34b9ba32b73a103a37b5b2b760891b6064820152608401610a82565b6000828152600b602052604081208054611a1790612eca565b80601f0160208091040260200160405190810160405280929190818152602001828054611a4390612eca565b8015611a905780601f10611a6557610100808354040283529160200191611a90565b820191906000526020600020905b815481529060010190602001808311611a7357829003601f168201915b505050505090506000611aa161217d565b905060195460001415611b4257600f8054611abb90612eca565b80601f0160208091040260200160405190810160405280929190818152602001828054611ae790612eca565b8015611b345780601f10611b0957610100808354040283529160200191611b34565b820191906000526020600020905b815481529060010190602001808311611b1757829003601f168201915b505050505092505050919050565b8051611b4f575092915050565b815115611b84578082600d604051602001611b6c93929190612bf7565b60405160208183030381529060405292505050919050565b80611b8e8561218c565b600d604051602001611b6c93929190612bf7565b600a546001600160a01b03163314611bcc5760405162461bcd60e51b8152600401610a8290612d9f565b601755565b60108054610bd290612eca565b600a546001600160a01b03163314611c085760405162461bcd60e51b8152600401610a8290612d9f565b805161158390600d906020840190612827565b600a546001600160a01b03163314611c455760405162461bcd60e51b8152600401610a8290612d9f565b6001600160a01b038116611caa5760405162461bcd60e51b815260206004820152602660248201527f4f776e61626c653a206e6577206f776e657220697320746865207a65726f206160448201526564647265737360d01b6064820152608401610a82565b610e4b81612029565b60006001600160e01b031982166380ac58cd60e01b1480611ce457506001600160e01b03198216635b5e139f60e01b145b80610a5257506301ffc9a760e01b6001600160e01b0319831614610a52565b600081815260046020526040902080546001600160a01b0319166001600160a01b0384169081179091558190611d3882611587565b6001600160a01b03167f8c5be1e5ebec7d5bd14f71427d1e84f3dd0314c0f7b2291e5b200ac8c7c3b92560405160405180910390a45050565b6000818152600260205260408120546001600160a01b0316611dea5760405162461bcd60e51b815260206004820152602c60248201527f4552433732313a206f70657261746f7220717565727920666f72206e6f6e657860448201526b34b9ba32b73a103a37b5b2b760a11b6064820152608401610a82565b6000611df583611587565b9050806001600160a01b0316846001600160a01b03161480611e305750836001600160a01b0316611e2584610b30565b6001600160a01b0316145b80611e6057506001600160a01b0380821660009081526005602090815260408083209388168352929052205460ff165b949350505050565b826001600160a01b0316611e7b82611587565b6001600160a01b031614611edf5760405162461bcd60e51b815260206004820152602560248201527f4552433732313a207472616e736665722066726f6d20696e636f72726563742060448201526437bbb732b960d91b6064820152608401610a82565b6001600160a01b038216611f415760405162461bcd60e51b8152602060048201526024808201527f4552433732313a207472616e7366657220746f20746865207a65726f206164646044820152637265737360e01b6064820152608401610a82565b611f4c8383836122a6565b611f57600082611d03565b6001600160a01b0383166000908152600360205260408120805460019290611f80908490612e70565b90915550506001600160a01b0382166000908152600360205260408120805460019290611fae908490612e25565b909155505060008181526002602052604080822080546001600160a01b0319166001600160a01b0386811691821790925591518493918716917fddf252ad1be2c89b69c2b068fc378daa952ba7f163c4a11628f55a4df523b3ef91a4505050565b61158382826040518060200160405280600081525061235e565b600a80546001600160a01b038381166001600160a01b0319831681179093556040519116919082907f8be0079c531659141344cd1fd0a4f28419497f9722a3daafe3b4186f6b6457e090600090a35050565b816001600160a01b0316836001600160a01b031614156120dd5760405162461bcd60e51b815260206004820152601960248201527f4552433732313a20617070726f766520746f2063616c6c6572000000000000006044820152606401610a82565b6001600160a01b03838116600081815260056020908152604080832094871680845294825291829020805460ff191686151590811790915591519182527f17307eab39ab6107e8899845ad3d59bd9653f200f220920489ca2b5937696c31910160405180910390a3505050565b612155848484611e68565b61216184848484612391565b6114555760405162461bcd60e51b8152600401610a8290612d4d565b6060600c8054610aad90612eca565b6060816121b05750506040805180820190915260018152600360fc1b602082015290565b8160005b81156121da57806121c481612f05565b91506121d39050600a83612e3d565b91506121b4565b60008167ffffffffffffffff81111561220357634e487b7160e01b600052604160045260246000fd5b6040519080825280601f01601f19166020018201604052801561222d576020820181803683370190505b5090505b8415611e6057612242600183612e70565b915061224f600a86612f20565b61225a906030612e25565b60f81b81838151811061227d57634e487b7160e01b600052603260045260246000fd5b60200101906001600160f81b031916908160001a90535061229f600a86612e3d565b9450612231565b6001600160a01b038316612301576122fc81600880546000838152600960205260408120829055600182018355919091527ff3f7a9fe364faab93b216da50a3214154f22a0a2b415b23a84c8169e8b636ee30155565b612324565b816001600160a01b0316836001600160a01b03161461232457612324838261249e565b6001600160a01b03821661233b57610d648161253b565b826001600160a01b0316826001600160a01b031614610d6457610d648282612614565b6123688383612658565b6123756000848484612391565b610d645760405162461bcd60e51b8152600401610a8290612d4d565b60006001600160a01b0384163b1561249357604051630a85bd0160e11b81526001600160a01b0385169063150b7a02906123d5903390899088908890600401612cb9565b602060405180830381600087803b1580156123ef57600080fd5b505af192505050801561241f575060408051601f3d908101601f1916820190925261241c91810190612b51565b60015b612479573d80801561244d576040519150601f19603f3d011682016040523d82523d6000602084013e612452565b606091505b5080516124715760405162461bcd60e51b8152600401610a8290612d4d565b805181602001fd5b6001600160e01b031916630a85bd0160e11b149050611e60565b506001949350505050565b600060016124ab84611779565b6124b59190612e70565b600083815260076020526040902054909150808214612508576001600160a01b03841660009081526006602090815260408083208584528252808320548484528184208190558352600790915290208190555b5060009182526007602090815260408084208490556001600160a01b039094168352600681528383209183525290812055565b60085460009061254d90600190612e70565b6000838152600960205260408120546008805493945090928490811061258357634e487b7160e01b600052603260045260246000fd5b9060005260206000200154905080600883815481106125b257634e487b7160e01b600052603260045260246000fd5b60009182526020808320909101929092558281526009909152604080822084905585825281205560088054806125f857634e487b7160e01b600052603160045260246000fd5b6001900381819060005260206000200160009055905550505050565b600061261f83611779565b6001600160a01b039093166000908152600660209081526040808320868452825280832085905593825260079052919091209190915550565b6001600160a01b0382166126ae5760405162461bcd60e51b815260206004820181905260248201527f4552433732313a206d696e7420746f20746865207a65726f20616464726573736044820152606401610a82565b6000818152600260205260409020546001600160a01b0316156127135760405162461bcd60e51b815260206004820152601c60248201527f4552433732313a20746f6b656e20616c7265616479206d696e746564000000006044820152606401610a82565b61271f600083836122a6565b6001600160a01b0382166000908152600360205260408120805460019290612748908490612e25565b909155505060008181526002602052604080822080546001600160a01b0319166001600160a01b03861690811790915590518392907fddf252ad1be2c89b69c2b068fc378daa952ba7f163c4a11628f55a4df523b3ef908290a45050565b5080546000825590600052602060002090810190610e4b919061289b565b828054828255906000526020600020908101928215612817579160200282015b828111156128175781546001600160a01b0319166001600160a01b038435161782556020909201916001909101906127e4565b5061282392915061289b565b5090565b82805461283390612eca565b90600052602060002090601f0160209004810192826128555760008555612817565b82601f1061286e57805160ff1916838001178555612817565b82800160010185558215612817579182015b82811115612817578251825591602001919060010190612880565b5b80821115612823576000815560010161289c565b600067ffffffffffffffff808411156128cb576128cb612f60565b604051601f8501601f19908116603f011681019082821181831017156128f3576128f3612f60565b8160405280935085815286868601111561290c57600080fd5b858560208301376000602087830101525050509392505050565b80356001600160a01b038116811461293d57600080fd5b919050565b8035801515811461293d57600080fd5b600060208284031215612963578081fd5b61296c82612926565b9392505050565b60008060408385031215612985578081fd5b61298e83612926565b915061299c60208401612926565b90509250929050565b6000806000606084860312156129b9578081fd5b6129c284612926565b92506129d060208501612926565b9150604084013590509250925092565b600080600080608085870312156129f5578081fd5b6129fe85612926565b9350612a0c60208601612926565b925060408501359150606085013567ffffffffffffffff811115612a2e578182fd5b8501601f81018713612a3e578182fd5b612a4d878235602084016128b0565b91505092959194509250565b60008060408385031215612a6b578182fd5b612a7483612926565b915061299c60208401612942565b60008060408385031215612a94578182fd5b612a9d83612926565b946020939093013593505050565b60008060208385031215612abd578182fd5b823567ffffffffffffffff80821115612ad4578384fd5b818501915085601f830112612ae7578384fd5b813581811115612af5578485fd5b8660208260051b8501011115612b09578485fd5b60209290920196919550909350505050565b600060208284031215612b2c578081fd5b61296c82612942565b600060208284031215612b46578081fd5b813561296c81612f76565b600060208284031215612b62578081fd5b815161296c81612f76565b600060208284031215612b7e578081fd5b813567ffffffffffffffff811115612b94578182fd5b8201601f81018413612ba4578182fd5b611e60848235602084016128b0565b600060208284031215612bc4578081fd5b5035919050565b60008151808452612be3816020860160208601612e87565b601f01601f19169290920160200192915050565b600084516020612c0a8285838a01612e87565b855191840191612c1d8184848a01612e87565b85549201918390600181811c9080831680612c3957607f831692505b858310811415612c5757634e487b7160e01b88526022600452602488fd5b808015612c6b5760018114612c7c57612ca8565b60ff19851688528388019550612ca8565b60008b815260209020895b85811015612ca05781548a820152908401908801612c87565b505083880195505b50939b9a5050505050505050505050565b6001600160a01b0385811682528416602082015260408101839052608060608201819052600090612cec90830184612bcb565b9695505050505050565b6020808252825182820181905260009190848201906040850190845b81811015612d2e57835183529284019291840191600101612d12565b50909695505050505050565b60208152600061296c6020830184612bcb565b60208082526032908201527f4552433732313a207472616e7366657220746f206e6f6e20455243373231526560408201527131b2b4bb32b91034b6b83632b6b2b73a32b960711b606082015260800190565b6020808252818101527f4f776e61626c653a2063616c6c6572206973206e6f7420746865206f776e6572604082015260600190565b60208082526031908201527f4552433732313a207472616e736665722063616c6c6572206973206e6f74206f6040820152701ddb995c881b9bdc88185c1c1c9bdd9959607a1b606082015260800190565b60008219821115612e3857612e38612f34565b500190565b600082612e4c57612e4c612f4a565b500490565b6000816000190483118215151615612e6b57612e6b612f34565b500290565b600082821015612e8257612e82612f34565b500390565b60005b83811015612ea2578181015183820152602001612e8a565b838111156114555750506000910152565b600081612ec257612ec2612f34565b506000190190565b600181811c90821680612ede57607f821691505b60208210811415612eff57634e487b7160e01b600052602260045260246000fd5b50919050565b6000600019821415612f1957612f19612f34565b5060010190565b600082612f2f57612f2f612f4a565b500690565b634e487b7160e01b600052601160045260246000fd5b634e487b7160e01b600052601260045260246000fd5b634e487b7160e01b600052604160045260246000fd5b6001600160e01b031981168114610e4b57600080fdfea26469706673582212206a15190632ef93cf6449b27f366c0d19aadfc75706a0d788aa2027164690a42164736f6c6343000804003368747470733a2f2f756e63616e6e792e6d7970696e6174612e636c6f75642f697066732f516d593559324658434e364356704b326d36724550614b7a70425756553347686f6d7369354d72474a4a346471712f312e6a736f6e",
  "devdoc": {
    "kind": "dev",
    "methods": {
      "approve(address,uint256)": {
        "details": "See {IERC721-approve}."
      },
      "balanceOf(address)": {
        "details": "See {IERC721-balanceOf}."
      },
      "getApproved(uint256)": {
        "details": "See {IERC721-getApproved}."
      },
      "isApprovedForAll(address,address)": {
        "details": "See {IERC721-isApprovedForAll}."
      },
      "name()": {
        "details": "See {IERC721Metadata-name}."
      },
      "owner()": {
        "details": "Returns the address of the current owner."
      },
      "ownerOf(uint256)": {
        "details": "See {IERC721-ownerOf}."
      },
      "renounceOwnership()": {
        "details": "Leaves the contract without owner. It will not be possible to call `onlyOwner` functions anymore. Can only be called by the current owner. NOTE: Renouncing ownership will leave the contract without an owner, thereby removing any functionality that is only available to the owner."
      },
      "safeTransferFrom(address,address,uint256)": {
        "details": "See {IERC721-safeTransferFrom}."
      },
      "safeTransferFrom(address,address,uint256,bytes)": {
        "details": "See {IERC721-safeTransferFrom}."
      },
      "setApprovalForAll(address,bool)": {
        "details": "See {IERC721-setApprovalForAll}."
      },
      "supportsInterface(bytes4)": {
        "details": "See {IERC165-supportsInterface}."
      },
      "symbol()": {
        "details": "See {IERC721Metadata-symbol}."
      },
      "tokenByIndex(uint256)": {
        "details": "See {IERC721Enumerable-tokenByIndex}."
      },
      "tokenOfOwnerByIndex(address,uint256)": {
        "details": "See {IERC721Enumerable-tokenOfOwnerByIndex}."
      },
      "tokenURI(uint256)": {
        "details": "See {IERC721Metadata-tokenURI}."
      },
      "totalSupply()": {
        "details": "See {IERC721Enumerable-totalSupply}."
      },
      "transferFrom(address,address,uint256)": {
        "details": "See {IERC721-transferFrom}."
      },
      "transferOwnership(address)": {
        "details": "Transfers ownership of the contract to a new account (`newOwner`). Can only be called by the current owner."
      }
    },
    "version": 1
  },
  "userdoc": {
    "kind": "user",
    "methods": {},
    "version": 1
  },
  "storageLayout": {
    "storage": [
      {
        "astId": 130,
        "contract": "contracts/Uncanny.sol:Uncanny",
        "label": "_name",
        "offset": 0,
        "slot": "0",
        "type": "t_string_storage"
      },
      {
        "astId": 132,
        "contract": "contracts/Uncanny.sol:Uncanny",
        "label": "_symbol",
        "offset": 0,
        "slot": "1",
        "type": "t_string_storage"
      },
      {
        "astId": 136,
        "contract": "contracts/Uncanny.sol:Uncanny",
        "label": "_owners",
        "offset": 0,
        "slot": "2",
        "type": "t_mapping(t_uint256,t_address)"
      },
      {
        "astId": 140,
        "contract": "contracts/Uncanny.sol:Uncanny",
        "label": "_balances",
        "offset": 0,
        "slot": "3",
        "type": "t_mapping(t_address,t_uint256)"
      },
      {
        "astId": 144,
        "contract": "contracts/Uncanny.sol:Uncanny",
        "label": "_tokenApprovals",
        "offset": 0,
        "slot": "4",
        "type": "t_mapping(t_uint256,t_address)"
      },
      {
        "astId": 150,
        "contract": "contracts/Uncanny.sol:Uncanny",
        "label": "_operatorApprovals",
        "offset": 0,
        "slot": "5",
        "type": "t_mapping(t_address,t_mapping(t_address,t_bool))"
      },
      {
        "astId": 1119,
        "contract": "contracts/Uncanny.sol:Uncanny",
        "label": "_ownedTokens",
        "offset": 0,
        "slot": "6",
        "type": "t_mapping(t_address,t_mapping(t_uint256,t_uint256))"
      },
      {
        "astId": 1123,
        "contract": "contracts/Uncanny.sol:Uncanny",
        "label": "_ownedTokensIndex",
        "offset": 0,
        "slot": "7",
        "type": "t_mapping(t_uint256,t_uint256)"
      },
      {
        "astId": 1126,
        "contract": "contracts/Uncanny.sol:Uncanny",
        "label": "_allTokens",
        "offset": 0,
        "slot": "8",
        "type": "t_array(t_uint256)dyn_storage"
      },
      {
        "astId": 1130,
        "contract": "contracts/Uncanny.sol:Uncanny",
        "label": "_allTokensIndex",
        "offset": 0,
        "slot": "9",
        "type": "t_mapping(t_uint256,t_uint256)"
      },
      {
        "astId": 7,
        "contract": "contracts/Uncanny.sol:Uncanny",
        "label": "_owner",
        "offset": 0,
        "slot": "10",
        "type": "t_address"
      },
      {
        "astId": 2071,
        "contract": "contracts/Uncanny.sol:Uncanny",
        "label": "_tokenURIs",
        "offset": 0,
        "slot": "11",
        "type": "t_mapping(t_uint256,t_string_storage)"
      },
      {
        "astId": 2073,
        "contract": "contracts/Uncanny.sol:Uncanny",
        "label": "baseURI",
        "offset": 0,
        "slot": "12",
        "type": "t_string_storage"
      },
      {
        "astId": 2076,
        "contract": "contracts/Uncanny.sol:Uncanny",
        "label": "baseExtension",
        "offset": 0,
        "slot": "13",
        "type": "t_string_storage"
      },
      {
        "astId": 2079,
        "contract": "contracts/Uncanny.sol:Uncanny",
        "label": "metaDataFolder",
        "offset": 0,
        "slot": "14",
        "type": "t_string_storage"
      },
      {
        "astId": 2082,
        "contract": "contracts/Uncanny.sol:Uncanny",
        "label": "notRevealedUri",
        "offset": 0,
        "slot": "15",
        "type": "t_string_storage"
      },
      {
        "astId": 2084,
        "contract": "contracts/Uncanny.sol:Uncanny",
        "label": "_name",
        "offset": 0,
        "slot": "16",
        "type": "t_string_storage"
      },
      {
        "astId": 2086,
        "contract": "contracts/Uncanny.sol:Uncanny",
        "label": "_symbol",
        "offset": 0,
        "slot": "17",
        "type": "t_string_storage"
      },
      {
        "astId": 2088,
        "contract": "contracts/Uncanny.sol:Uncanny",
        "label": "_initBaseURI",
        "offset": 0,
        "slot": "18",
        "type": "t_string_storage"
      },
      {
        "astId": 2091,
        "contract": "contracts/Uncanny.sol:Uncanny",
        "label": "cost",
        "offset": 0,
        "slot": "19",
        "type": "t_uint256"
      },
      {
        "astId": 2094,
        "contract": "contracts/Uncanny.sol:Uncanny",
        "label": "maxSupply",
        "offset": 0,
        "slot": "20",
        "type": "t_uint256"
      },
      {
        "astId": 2097,
        "contract": "contracts/Uncanny.sol:Uncanny",
        "label": "remainTokenAmount",
        "offset": 0,
        "slot": "21",
        "type": "t_uint256"
      },
      {
        "astId": 2100,
        "contract": "contracts/Uncanny.sol:Uncanny",
        "label": "maxMintAmount",
        "offset": 0,
        "slot": "22",
        "type": "t_uint256"
      },
      {
        "astId": 2103,
        "contract": "contracts/Uncanny.sol:Uncanny",
        "label": "nftPerAddressLimit",
        "offset": 0,
        "slot": "23",
        "type": "t_uint256"
      },
      {
        "astId": 2106,
        "contract": "contracts/Uncanny.sol:Uncanny",
        "label": "onlyWhitelisted",
        "offset": 0,
        "slot": "24",
        "type": "t_uint256"
      },
      {
        "astId": 2109,
        "contract": "contracts/Uncanny.sol:Uncanny",
        "label": "revealed",
        "offset": 0,
        "slot": "25",
        "type": "t_uint256"
      },
      {
        "astId": 2112,
        "contract": "contracts/Uncanny.sol:Uncanny",
        "label": "paused",
        "offset": 0,
        "slot": "26",
        "type": "t_bool"
      },
      {
        "astId": 2115,
        "contract": "contracts/Uncanny.sol:Uncanny",
        "label": "mintState",
        "offset": 0,
        "slot": "27",
        "type": "t_uint256"
      },
      {
        "astId": 2118,
        "contract": "contracts/Uncanny.sol:Uncanny",
        "label": "whitelistedAddresses",
        "offset": 0,
        "slot": "28",
        "type": "t_array(t_address)dyn_storage"
      },
      {
        "astId": 2122,
        "contract": "contracts/Uncanny.sol:Uncanny",
        "label": "addressMintedBalance",
        "offset": 0,
        "slot": "29",
        "type": "t_mapping(t_address,t_uint256)"
      },
      {
        "astId": 2124,
        "contract": "contracts/Uncanny.sol:Uncanny",
        "label": "Owner",
        "offset": 0,
        "slot": "30",
        "type": "t_address"
      }
    ],
    "types": {
      "t_address": {
        "encoding": "inplace",
        "label": "address",
        "numberOfBytes": "20"
      },
      "t_array(t_address)dyn_storage": {
        "base": "t_address",
        "encoding": "dynamic_array",
        "label": "address[]",
        "numberOfBytes": "32"
      },
      "t_array(t_uint256)dyn_storage": {
        "base": "t_uint256",
        "encoding": "dynamic_array",
        "label": "uint256[]",
        "numberOfBytes": "32"
      },
      "t_bool": {
        "encoding": "inplace",
        "label": "bool",
        "numberOfBytes": "1"
      },
      "t_mapping(t_address,t_bool)": {
        "encoding": "mapping",
        "key": "t_address",
        "label": "mapping(address => bool)",
        "numberOfBytes": "32",
        "value": "t_bool"
      },
      "t_mapping(t_address,t_mapping(t_address,t_bool))": {
        "encoding": "mapping",
        "key": "t_address",
        "label": "mapping(address => mapping(address => bool))",
        "numberOfBytes": "32",
        "value": "t_mapping(t_address,t_bool)"
      },
      "t_mapping(t_address,t_mapping(t_uint256,t_uint256))": {
        "encoding": "mapping",
        "key": "t_address",
        "label": "mapping(address => mapping(uint256 => uint256))",
        "numberOfBytes": "32",
        "value": "t_mapping(t_uint256,t_uint256)"
      },
      "t_mapping(t_address,t_uint256)": {
        "encoding": "mapping",
        "key": "t_address",
        "label": "mapping(address => uint256)",
        "numberOfBytes": "32",
        "value": "t_uint256"
      },
      "t_mapping(t_uint256,t_address)": {
        "encoding": "mapping",
        "key": "t_uint256",
        "label": "mapping(uint256 => address)",
        "numberOfBytes": "32",
        "value": "t_address"
      },
      "t_mapping(t_uint256,t_string_storage)": {
        "encoding": "mapping",
        "key": "t_uint256",
        "label": "mapping(uint256 => string)",
        "numberOfBytes": "32",
        "value": "t_string_storage"
      },
      "t_mapping(t_uint256,t_uint256)": {
        "encoding": "mapping",
        "key": "t_uint256",
        "label": "mapping(uint256 => uint256)",
        "numberOfBytes": "32",
        "value": "t_uint256"
      },
      "t_string_storage": {
        "encoding": "bytes",
        "label": "string",
        "numberOfBytes": "32"
      },
      "t_uint256": {
        "encoding": "inplace",
        "label": "uint256",
        "numberOfBytes": "32"
      }
    }
  }
}